:060000000A128A110C280F
:10000800FE00030EF1000A08F2000A128A11CC2B36
:100018000A128A110F280A128A11F8230A128A1161
:10002800F900F601F701F80183010A128A115B2A27
:10003800FF1B262883137F1883170008840A0319D7
:10004800FF0A08007F087F398A000408840A031918
:04005800FF0A820019
:10020000503472346534733469346F346E34653409
:1002100020346334753461346C347134753469342A
:100220006534723420347434653463346C3461342E
:100230002034703461347234613420347234653463
:1002400069346E346934633469346134723420340F
:100250006D3465346E3475342E34003449346E3464
:1002600067347234653473346534203475346E34D5
:1002700020346534733470346134633469346F34DA
:1002800020342734203427342034703461347234DD
:10029000613420347234653469346E3469346334C3
:1002A00069346134723420346D3465346E3475349D
:1002B0002E3400344C34613420346F347034633461
:1002C0006934F3346E342034733465346C346534FB
:1002D0006334633469346F346E346134643461344C
:1002E00020346E346F342034653473347434E13424
:1002F000203465346E34203465346C3420346D34ED
:1003000065346E34FA342E34003445346E34763429
:10031000ED346F3420346434653420347634613401
:100320006C346F34723420344134533443344334A6
:100330004934203461346C3420347034753465347D
:10034000723474346F342034423420346134633472
:100350007434693476346F342E340034503472344B
:100360006534733469346F346E34653420346334E7
:10037000753461346C347134753469346534723475
:1003800020347434653463346C3461342034703414
:10039000613472346134203463346F346E347434B5
:1003A00069346E347534613472342E34003453340D
:1003B00065346C3465346334633469346F346E345B
:1003C000653420346C3461342034613463346334F4
:1003D0006934F3346E342034713475346534203428
:1003E0006434653473346534613420347234653474
:1003F00061346C3469347A346134723400344C348E
:100400006534633474347534723461342034643444
:100410006534203470346F34743465346E3463342E
:100420006934F3346D346534743472346F34203489
:100430006134633474346934763461342E34003476
:1004400031342E34203445346E347634693461349A
:1004500072342034413453344334433449342034E7
:1004600061346C34203470347534653472347434CF
:100470006F3420344234003430342E3420344C3441
:10048000653465347234203470346F3474346534B8
:100490006E3463346934F3346D34653474347234D7
:1004A0006F3400344F34703463346934F3346E3451
:1004B0003A34203400340A128A1129230A128A118C
:1004C000682A0A128A1172230A128A11F901F701A5
:1004D000790303196C2A6D2A612A7703031D712A97
:1004E000722A682A831203130C1E772A782A722A2A
:1004F000780899000A128A11EF230A128A11303003
:100500007806031D842A852ABD2A0A128A11EF2340
:100510000A128A11FF30F3008130F4000A128A11A6
:10052000A6230A128A110A128A11EF230A128A11CB
:100530000030F3008130F4000A128A11A6230A1257
:100540008A110A128A11EF230A128A11B62A83121B
:1005500003139F18AC2AAD2AB62AC3309F05033077
:10056000F500F50BB12A831203139F14303078067F
:100570000319BB2ABC2AA72A1B2B31307806031D7E
:10058000C22AC32AF02A0A128A11EF230A128A11F8
:100590008530F3008130F4000A128A11A6230A1272
:1005A0008A110A128A11EF230A128A112E30F300DF
:1005B0008130F4000A128A11A6230A128A110A1243
:1005C0008A11EF230A128A11E92A78088312031389
:1005D000860020307806031DEE2AEF2AE52A1B2B21
:1005E0007808F5007508F6000A128A11EF230A123E
:1005F0008A115A30F3008130F4000A128A11A623BE
:100600000A128A110A128A11EF230A128A11AE30D5
:10061000F3008130F4000A128A11A6230A128A110B
:100620000A128A11EF230A128A1176087806031932
:100630001A2B1B2B152B831203130C1E202B212B83
:100640001B2B0C309900F901F90A682A0A128A1149
:100650000C280130831603178800890101308316A6
:100660000313850086018312031385018601831617
:1006700003130F088F3940388F000F141812181504
:10068000831603178715831603139A0119309900EF
:1006900083120313981718138316031398168312E3
:1006A000031318168B170B17831603138C160C17CE
:1006B000831203130C131F083F3940389F00831621
:1006C00003131F129F12C330831203139F05831657
:1006D00003139F13831203131F140330F300F30B50
:1006E0006F2B0800D730F3008130F4000A128A1112
:1006F000A6230A128A110A128A11EF230A128A11FA
:100700003C30F3008230F4000A128A11A6230A1248
:100710008A110A128A11EF230A128A112030F3007B
:100720008230F4000A128A11A6230A128A110A12D0
:100730008A11EF230A128A115230F3008230F4003A
:100740000A128A11A6230A128A110800BB2B0C1E5A
:10075000AA2BAB2BA72B7408FF00730884000A1286
:100760008A111C200A128A1199000130F30703181C
:10077000F40A0030F407740883120313FF007308AF
:1007800084000A128A111C200A128A11003A031DE1
:10079000CA2BCB2BA72B0800831203138C1ED12B43
:1007A000D22BD82B1A08F0007008F800F701F70ACE
:1007B0000C1FDB2BDC2BE82B1F0CF000700C0F390F
:1007C000003A031DE42BE52BE72B1E0886000C13D3
:1007D00072088A00710E8300FE0E7E0E09008312DD
:1007E00003130C1EF42BF52BEF2B0D309900080092
:0207F0000134D2
:08400000FF3FFF3FFF3FFF3FC0
:04400E00D420FF3F7C
:00000001FF
